:020000040800F2
:10000000F83100209D010008A5010008A7010008A3
:10001000A9010008AB010008AD01000800000000C4
:10002000000000000000000000000000AF01000818
:10003000B101000800000000B3010008D912000857
:10004000B7010008B7010008B7010008B7010008B0
:10005000B7010008B7010008B7010008B7010008A0
:10006000B7010008B7010008B7010008B701000890
:10007000B7010008B7010008B7010008B701000880
:10008000B7010008B7010008B7010008B701000870
:10009000B7010008B7010008B7010008990A000875
:1000A000B7010008B7010008B7010008B701000850
:1000B000B7010008B70100089D140008B701000847
:1000C000B7010008B7010008B7010008B701000830
:1000D000B701000815190008551B0008B7010008F2
:1000E000B7010008B7010008B7010008B701000810
:1000F000B7010008B7010008B7010008B701000800
:10010000B7010008B7010008B7010008B7010008EF
:10011000B7010008B7010008B7010008B7010008DF
:10012000B7010008B7010008B7010008B7010008CF
:10013000B7010008B7010008B7010008B7010008BF
:10014000B7010008B7010008B7010008B7010008AF
:10015000B7010008B7010008B7010008B70100089F
:10016000B7010008B7010008B7010008B70100088F
:10017000B7010008B7010008B7010008B70100087F
:10018000B7010008B7010008DFF80CD000F050F804
:1001900000480047A9220008F8310020064880479F
:1001A00006480047FEE7FEE7FEE7FEE7FEE7FEE75C
:1001B000FEE7FEE7FEE7FEE7F1120008890100080E
:1001C000D2B201E000F8012B491EFBD27047002299
:1001D000F6E710B513460A4604461946FFF7F0FF46
:1001E000204610BD30B505460020034600E05B1CEC
:1001F000934205D2EC5CC85C201A01D1002CF6D1E8
:1002000030BD30B50B46014600202022012409E014
:1002100021FA02F59D4205D303FA02F5491B04FABF
:1002200002F52844151EA2F10102F1DC30BD0000E8
:10023000064C074D06E0E06840F0010394E8070033
:1002400098471034AC42F6D3FFF7A2FF982C000871
:10025000B82C000870B58D1810F8014B14F003028B
:1002600001D110F8012B231106D110F8013B03E056
:1002700010F8016B01F8016B521EF9D1ABB110F807
:10028000012B04F00C048A1A0C2C03D0A2EB84126C
:100290009B1C08E010F8014BA2EB0422F8E712F8CF
:1002A000014B01F8014B5B1EF9D5A942D4D30020C4
:1002B00070BD000000B58DB00121080200F094FE71
:1002C0000121084600F060FE01200B9003208DF80C
:1002D000300000208DF833008DF831000BA9114853
:1002E00000F042FC002007900A9009904FF4803003
:1002F000089007A800F066F800208DF8080001902B
:100300008DF809000390059001208DF8180001A9CF
:10031000054800F07DF80121034800F047F80DB0D2
:1003200000BD000000000240002001402DE9F04126
:10033000002700240525002604E000F00BF82044E7
:1003400084B2761CAE42F8DB94FBF5F080B207462F
:10035000BDE8F08110B5072301220021084800F014
:1003600081F8074800F0DAF800BF0221044800F0E5
:1003700045F80028F9D0024800F03CF810BD000014
:10038000002001402DE9F04100270024052500262A
:1003900004E0FFF7DFFF204484B2761CAE42F8DBB6
:1003A00094FBF5F080B20746BDE8F08121B1826888
:1003B00042F00102826003E0826822F00102826062
:1003C000704700000021084A1168084A1140D0E92E
:1003D00000231A4383681A43C3681A431143044A2B
:1003E000C2F804137047000004230140E030FCFF12
:1003F000002001400146C86C80B2704702460020D0
:1004000013680B400BB1012000E000207047000092
:1004100030B50246002000235068104C20400D7972
:100420000C6844EA05242043506090680C4C20403E
:10043000D1E903542C438D682C434D7944EA45049B
:1004400020439060D06A20F470000C7D641EE4B2FA
:10045000234340EA0350D06230BD0000FFFEFFFCA2
:10046000FDF7FFC0F0B504460D4600200021092D20
:1004700011DDE068A5F10A0606EB4607072606FA35
:1004800007F18843A5F10A0606EB460603FA06F1D2
:100490000843E0600CE0206905EB4507072606FAF3
:1004A00007F1884305EB450603FA06F1084320618E
:1004B000072A0FDA606B561E06EB86071F2606FA20
:1004C00007F18843561E06EB860605FA06F1084337
:1004D000606322E00D2A0FDA206BD61F06EB860739
:1004E0001F2606FA07F18843D61F06EB860605FA93
:1004F00006F10843206310E0E06AA2F10D0606EB66
:1005000086071F2606FA07F18843A2F10D0606EBBF
:10051000860605FA06F10843E062F0BD816841F005
:1005200080418160704770B500240125C82611E024
:10053000012D01D1641C00E0641E3C2C00D9002573
:1005400004B9012521464FF0804001F05EF90A20F0
:1005500001F06AFD3000A6F10106E9D170BD10B5C9
:10056000FFF7E4FE0446002C04DBB4F5805F01DAFB
:10057000002010BD0120FCE710B5FFF703FF044683
:10058000002C04DBB4F5805F01DA002010BD0120EF
:10059000FCE700001CB50121022000F0F5FC4FF43F
:1005A0008060009001208DF8040000208DF8060086
:1005B00001208DF8070000208DF8050069460448E9
:1005C00000F0D2FA4FF48061014800F041FB1CBDFD
:1005D000000402401CB50121102000F0D5FC3020A1
:1005E000009000208DF8040001208DF80700002005
:1005F0008DF805006946024800F0B6FA1CBD0000FF
:10060000001002401CB50121102000F0BDFC4FF489
:10061000E060009001208DF8040000208DF80600B5
:1006200001208DF8070000208DF805006946044878
:1006300000F09AFA4FF4E061014800F00BFB1CBD9A
:10064000001002401CB50121084600F09DFC082066
:10065000009001208DF804008DF8060000208DF830
:1006600007008DF805006946034800F07DFA08216F
:10067000014800F0EFFA1CBD000002401CB501214A
:10068000084600F081FC0820009000208DF804004E
:100690008DF807008DF805006946024800F064FAFD
:1006A0001CBD0000000002401CB50121084600F0FE
:1006B0006BFC0820009001208DF804008DF80600E6
:1006C00000208DF807008DF805006946034800F00A
:1006D0004BFA0821014800F0BDFA1CBD00000240A1
:1006E00070B505460E46FFF7DFFF08212B4800F0E6
:1006F000AFFA142001F098FC0821284800F0AAFA6B
:100700001E2001F0ADFC00BF0821244800F097FA3C
:100710000028F9D1FFF7B2FF00BF08211F4800F001
:100720008EFA0028F9D000BF08211C4800F087FA93
:100730000028F9D1002400BF05E000F037F818497F
:100740000855601CC4B2052CF7DBFFF7ADFF144859
:1007500000781349497808441149897808441049B8
:10076000C97808440E490979884215D10C480078A7
:100770000C4908700A4840784870094880780A494E
:1007800008700748C0784870054800783070044801
:1007900080782870002070BD0120FCE70000024036
:1007A00010000020170000201500002070B5002464
:1007B000FFF764FF002500BF23E06006040E00BFC2
:1007C0000821134800F03BFA0028F9D100BF0821A6
:1007D0000F4800F034FA0028F9D008210C4800F046
:1007E0002EFA10B11E2001F03BFC0821084800F051
:1007F00026FA10B144F0010401E004F0FE04681C84
:10080000C5B2082DD9DBFFF74FFF204670BD0000B1
:10081000000002400246094B9A4201D2084801E01A
:100820000648103801F000531BB1064B0B40C36063
:1008300002E0044B0B4083607047000010640240EC
:10084000006002407D0F7D0F21B1026842F001027D
:10085000026003E0026822F00102026070470000BB
:10086000016821F0010101600021016041608160A7
:10087000C1600161212141614A49884204D13D2181
:10088000484A103A91608CE046491831884205D1B7
:100890004FF47461434A103A916082E0414930312B
:1008A000884205D14FF474113E4A103A916078E0C5
:1008B0003C494831884205D14FF07461394A103AB9
:1008C00091606EE037496031884204D13649354A3B
:1008D000103AD16065E033497831884204D1334918
:1008E000304A103AD1605CE02E499031884204D100
:1008F0002F492C4A103AD16053E02A49A831884246
:1009000005D14FF03D51274A103AD16049E02949BD
:10091000884204D13D21274A083A116041E0254927
:100920001831884205D14FF47461224A083A1160A7
:1009300037E020493031884205D14FF474111D4A07
:10094000083A11602DE01B494831884205D14FF02B
:100950007461184A083A116023E0164960318842F0
:1009600004D11149134A121F11601AE0114978315C
:10097000884204D10D490F4A121F116011E00D4940
:100980009031884204D10A490A4A121F116008E0D6
:100990000849A831884204D14FF03D51054A121F41
:1009A00011607047106002403D000020400F0020A1
:1009B00000003D201064024070B504460D46002141
:1009C0002046FFF741FF00BF204600F00BF800284B
:1009D000FAD12946204600F05DF801212046FFF7B4
:1009E00033FF70BD014600200A6802F001020AB11F
:1009F000012000E00020704730B503460A46002081
:100A000000240B4DAB4201D20A4901E008491039DC
:100A100002F000550DB14C6800E00C68064D2C400A
:100A200004EA02050DB1012000E0002030BD000005
:100A300010640240006002407D0F7D0F10B500225F
:100A40000268134B1A40CC680B6823434C6923435C
:100A50008C692343CC6923430C6A23434C6A2343A8
:100A60008C6A23434C6B23438C6B23431A430260F1
:100A7000426922F00702D1E90B3423431A43426151
:100A80000B6943604B6883608B68C36010BD0000D6
:100A90003F801CF04160704710B54FF480610848FA
:100AA00000F0DAF807490968481C00EBD0714910DA
:100AB000A0EB4101034A1160202000F005F810BDB1
:100AC00000100240AC0D0020014908607047000092
:100AD000143C0140002123498279002A3AD00A4679
:100AE000126803689A430B461A600A1D126803686D
:100AF0009A430B1D1A60027911440A6803681A436D
:100B00000A60184A0832126803689A43154B083382
:100B10001A601A1D126803689A43124B0C331A604C
:100B20004279102A0ED11A1F126803681A430D4B1E
:100B300008331A601A1D126803681A43094B0C33F4
:100B40001A600DE00749427911440A6803681A43A4
:100B50000A6005E0027911440A6803689A430A6052
:100B600070470000003C0140F0B50A460021002318
:100B7000002400BF3DE0012505FA01F3156805EAF0
:100B800003049C4234D105684F000326BE40B543A0
:100B9000056015794E00B540066835430560157946
:100BA000012D02D01579022D16D185684F0003263C
:100BB000BE40B543856055794E00B54086683543E3
:100BC0008560456801268E40B54345604568967945
:100BD0008E40B6B235434560C5684F000326BE401F
:100BE000B543C560D5794E00B540C6683543C5608C
:100BF000491C1029BFD3F0BDF0B5002300244D07D8
:100C0000ED0E02FA05F3CE1000F1200555F826503E
:100C10004E07F70E0F26BE40B543CF1000F1200659
:100C200046F82750CE1000F1200555F8265045EA29
:100C30000304CE1000F1200545F82640F0BD024621
:100C4000002013690B400BB1012000E00020704729
:100C5000418370470183704742694A40426170474F
:100C600000B585B00121880300F0BEF900208DF8A1
:100C700010002020039001208DF8130000208DF833
:100C8000110003A91448FFF76FFF0521042000F0AD
:100C900079FA2020019001208DF80A0000208DF8BB
:100CA00008000C208DF8090001A8FFF713FF0120B0
:100CB0008DF8030017208DF8000000208DF801004A
:100CC0008DF80200684600F099F84FF4A06000F03B
:100CD000D1F805B000BD00000010024010B5AE20F4
:100CE00001F03DF8002001F03AF8102001F037F84B
:100CF000402001F034F8812001F031F8CF2001F0DC
:100D00002EF8A12001F02BF8C82001F028F8A62029
:100D100001F025F8A82001F022F83F2001F01FF88B
:100D2000D32001F01CF8002001F019F8D52001F0C3
:100D300016F8802001F013F8D92001F010F8F12006
:100D400001F00DF8DA2001F00AF8122001F007F89E
:100D5000DB2001F004F8402001F001F8022000F04F
:100D6000FEFF8D2000F0FBFF142000F0F8FFA42010
:100D700000F0F5FFA62000F0F2FFAF2000F0EFFF3B
:100D8000AF2000F0ECFF002000F095F810BD2DE939
:100D9000F04190B00646884614461D46169F012134
:100DA000880500F0F1F83046FFF75AFD00BF3046E5
:100DB000FFF718FE0028FAD14FF00060019002946E
:100DC0000395402004900597002006904FF4806022
:100DD00007900020089009900A904FF480300B9003
:100DE00000200C9003200D9000200E900F9001A980
:100DF0003046FFF723FE10B0BDE8F08170B500214A
:100E000000230F22C4781CB3174C246804F4E06458
:100E1000C4F5E064C4F30721C1F10404E3B20A415C
:100E200044789C40E1B28478144021430C07210EA1
:100E30000E4C05786155047804F01F050124AC4080
:100E400005786D11AD0005F1E025C5F8004109E018
:100E5000047804F01F050124AC40054D0678761196
:100E600045F8264070BD00000CED00E000E400E015
:100E700080E100E002490143024A1160704700002E
:100E80000000FA050CED00E070B504460E4615466C
:100E90000DE02A463146204600F03CF804F10800F7
:100EA000C4B2782C02DD0024B01CC6B26D1C2878B8
:100EB0000028EED170BD70B50646002415E004F19F
:100EC000B001C8B200F04BFF002000F048FF102036
:100ED00000F045FF002504E0304600F057FF681C95
:100EE000C5B2802DF8DB601CC4B2082CE7DB70BDF6
:100EF00070B504460D4605F1B001C8B200F02FFFF1
:100F0000102141EA141000F02AFF04F00F0000F055
:100F100026FF70BD2DE9F04106460F46904600249D
:100F200045462AE039463046FFF7E2FF002409E053
:100F30002978203904EB0111124A505C00F026FF99
:100F4000601CC4B2082CF3DB781CC1B23046FFF73A
:100F5000CFFF00240BE029782039082202EB011191
:100F60002144084A505C00F011FF601CC4B2082CF8
:100F7000F1DB6D1C06F10800C6B228780028D1D13B
:100F8000BDE8F0819826000829B1064A126802439C
:100F9000044B1A6004E0034A12688243014B1A6052
:100FA000704700003038024029B1064A12680243F7
:100FB000044B1A6004E0034A12688243014B1A6032
:100FC000704700004038024029B1064A12680243C7
:100FD000044B1A6004E0034A12688243014B1A6012
:100FE000704700002038024029B1064A12680243C7
:100FF000044B1A6004E0034A12688243014B1A60F2
:10100000704700004438024029B1064A1268024382
:10101000044B1A6004E0034A12688243014B1A60D1
:101020007047000024380240F0B50021002200245F
:10103000022500260223324F3F6807F00C0121B140
:10104000042905D0082937D105E02E4F076036E086
:101050002D4F076033E02A4F3F1F3F68C7F380568C
:10106000274F3F1F3F6807F03F036EB1264FB7FB86
:10107000F3F7DFF88CC0ACF1040CDCF800C0CCF363
:10108000881C07FB0CF40CE01E4FB7FBF3F7DFF8EE
:1010900070C0ACF1040CDCF800C0CCF3881C07FB7A
:1010A0000CF4174F3F1F3F68C7F301477F1C7D00BB
:1010B000B4FBF5F7076002E0124F076000BF00BF06
:1010C0000F4F3F6807F0F0010909104F7A5C07687D
:1010D000D74047600A4F3F6807F4E051890A0B4F39
:1010E0007A5C4768D7408760054F3F6807F46041E6
:1010F000490B064F7A5C4768D740C760F0BD0000D7
:10110000083802400024F40000127A000000002099
:101110002DE9F05F06460F4690461C46DDF828A0F4
:101120004FF0000BE11704EB5171C910A4EBC101A2
:1011300031B92046E11704EB5171C1F3C70506E050
:101140002046E11704EB5171C910491CCDB23D4650
:1011500014E029463046FFF7CBFEB1460AE0594677
:101160000BF1010B1AF8010000F010FE09F101006B
:1011700000F0FF09C145F2DB681CC5B2A542E8DBFF
:10118000BDE8F09F30B500228B071C0F0F2303FA38
:1011900004F20B4B8C1053F824309343084C8D1001
:1011A00044F8253023468C1053F824308C07240F44
:1011B00000FA04F42343024C8D1044F8253030BD6E
:1011C000083801400CB500200190009034480068B8
:1011D00040F480303249086000BF3148006800F4B4
:1011E000003000900198401C0190009818B90198B7
:1011F000B0F5A04FF1D12A48006800F4003010B1DA
:101200000120009001E0002000900098012846D1C4
:1012100023484030006840F0805021494031086048
:101220002048006840F440401E4908601C480830CF
:1012300000681B49083108600846006840F4004017
:1012400008600846006840F4A05008601648091F6E
:101250000860081F006840F08070091F086000BF28
:101260000F48006800F000700028F9D040F20570C7
:101270000E4908600A480830006820F00300084959
:10128000083108600846006840F00200086000BFAE
:1012900003480830006800F00C000828F8D10CBDA5
:1012A000003802400070004008544007003C0240F3
:1012B000042808D14FF0E021096941F004014FF002
:1012C000E022116107E04FF0E021096921F00401FB
:1012D0004FF0E022116170470448006820B10348D4
:1012E0000068401E0149086070470000BC0D0020E6
:1012F00010B51548006840F47000134908601348A1
:10130000006840F001001149086000200F490831D1
:1013100008600E4800680E4908400C4908600D48F6
:10132000091D0860081F006820F48020091F08605C
:10133000002006490C310860FFF744FF4FF00060C1
:1013400001498039086010BD88ED00E00038024096
:10135000FFFFF6FE1030002400B58BB001210846D7
:10136000FFF742FE01211020FFF70EFE224800F099
:10137000EBF8012209212148FFF73EFC4FF40070F1
:10138000069002208DF81C0003208DF81D0000201F
:101390008DF81E0001208DF81F0006A91748FFF7E1
:1013A000E3FB4FF4C870ADF820000020ADF8220038
:1013B000642009900020ADF8280008A90E4800F02C
:1013C00027FA6020ADF804000020ADF810000120DD
:1013D000ADF806000020ADF8140001A9064800F0A1
:1013E0007BF90121044800F094F80121024800F043
:1013F0009CF80BB000BD000000000140001002404E
:1014000000B58BB001210846FFF7CEFD0121022077
:10141000FFF7BAFD4FF48060099002208DF8280094
:1014200000208DF82A0001208DF82B0000208DF877
:10143000290009A91848FFF797FB01220A2116483D
:10144000FFF7DAFB5320ADF8180040F2E7300790C1
:101450000020ADF81A0006A94FF0804000F0D8F93E
:101460006020ADF804000120ADF806000020ADF8C2
:10147000100001A94FF0804000F06CF901218807AD
:1014800000F047F80821C80600F0B4F901218807E8
:1014900000F030F80BB000BD0004024010B501218F
:1014A000124800F033F81249087800EBD071491067
:1014B000A0EB410141B9022000F00CFA0C48007881
:1014C000401C0B49087010E00949087800EBD07106
:1014D0004910A0EB4101012907D1022000F0DAF9FF
:1014E00003480078401C0249087010BD0008004005
:1014F000C00D002021B1028842F08002028004E089
:1015000002884FF67F731A4002807047CA430282F6
:10151000704721B1028842F00102028004E0028893
:101520004FF6FE731A400280704731B1B0F8442084
:1015300042F40042A0F8442005E0B0F84420C2F391
:101540000E02A0F84420704710B504465548844266
:1015500008D101210846FFF757FD00210120FFF7C0
:1015600053FD9DE0B4F1804F08D101210846FFF7FB
:101570002BFD00210120FFF727FD91E04A4884421E
:1015800008D101210220FFF71FFD00210220FFF7F3
:101590001BFD85E04548844208D101210420FFF766
:1015A00013FD00210420FFF70FFD79E0404884423D
:1015B00008D101210820FFF707FD00210820FFF7CF
:1015C00003FD6DE03B48844208D101211020FFF764
:1015D000FBFC00211020FFF7F7FC61E03648844255
:1015E00008D101212020FFF7EFFC00212020FFF788
:1015F000EBFC55E03148844208D101210220FFF77D
:1016000003FD00210220FFF7FFFC49E02C48844243
:1016100009D101210804FFF7F7FC00214FF48030C5
:10162000FFF7F2FC3CE02748844209D1012148043D
:10163000FFF7EAFC00214FF40030FFF7E5FC2FE054
:101640002148844209D101218804FFF7DDFC0021F3
:101650004FF48020FFF7D8FC22E01C48844208D1D8
:1016600001214020FFF7B0FC00214020FFF7ACFC37
:1016700016E01748844208D101218020FFF7A4FC1E
:1016800000218020FFF7A0FC0AE01248844207D125
:1016900001218015FFF798FC0021A015FFF794FCAD
:1016A00010BD0000000001400004004000080040A0
:1016B000000C0040001000400014004000040140F5
:1016C0000040014000440140004801400018004033
:1016D000001C00400020004070B5002400220023C0
:1016E000058C4FF6FE7635400584028C8388048B8A
:1016F0004FF68F752C40B51E2C400D882C43751E5F
:101700002A408D892A434D882A43104DA84202D091
:101710000F4DA84213D14FF6F7752A40CD892A43C1
:101720004FF6FB752A408D882A434FF6FF652B4004
:101730004FF6FF552B400D8A2B434D8A2B43838058
:1017400004838D684563028470BD00000000014081
:101750000004014070B5002400220023058C4FF6E0
:10176000FF6635400584028C8388848B4FF68F7525
:101770002C404FF6FC752C400D882C434FF6FF553E
:101780002A408D894FF6FF7606EA05252A434D88C3
:1017900006EA05252A43154DA84202D0144DA84259
:1017A0001DD14FF2FF752A40CD894FF6FF7606EA2C
:1017B00005252A434FF6FF352A408D8806EA052580
:1017C0002A434EF6FF752B404DF6FF752B400D8AD0
:1017D00006EA05152B434D8A06EA05152B4383803F
:1017E00084838D68C563028470BD000000000140E1
:1017F000000401400A460021818B4FF6F77319401F
:1018000011438183704741637047C1637047000093
:1018100000220288184B98420ED0184B98420BD0E9
:10182000B0F1804F08D0164B984205D0154B984226
:1018300002D0154B984204D14FF68F731A404B8853
:101840001A43124B984207D0114B984204D04FF6DE
:10185000FF431A400B891A4302804B68C3620B880E
:101860000385054B984202D0044B984201D18B7AF4
:101870000386012383827047000001400004014079
:101880000004004000080040000C00400010004030
:101890000014004010B50446012C04D0022C08D0DE
:1018A000032C12D10BE04FF480710948FFF7D2F9F5
:1018B0000BE04FF400710648FFF7CCF905E04FF458
:1018C00080610348FFF7C6F900BF00BF10BD0000EC
:1018D0000010024010B50446012C04D0022C08D0A0
:1018E000032C12D10BE04FF480710948FFF7B0F9D7
:1018F0000BE04FF400710648FFF7AAF905E04FF43A
:1019000080610348FFF7A4F900BF00BF10BD0000CD
:101910000010024030B5A1B040F22551704800F0EF
:101920005FF900287ED06E4800F014FA6D496E4AC7
:10193000127888546C480078401C6B49087008463F
:101940000078102801DD00200870322000F088FBAC
:10195000022266A16348FEF745FC60B90120FFF74B
:10196000B9FF00206049087020215E48FEF72FFC77
:101970000A2000F059FB02225DA15A48FEF732FC12
:1019800060B90120FFF786FF002057490870202129
:101990005448FEF71CFC0A2000F062FB022255A10D
:1019A0005048FEF71FFC78B901218807FFF7B1FD09
:1019B000FEF7B9FD00204C49087020214948FEF788
:1019C00006FC0A2000F04CFB02224BA14548FEF722
:1019D00009FC70B900214FF08040FFF79AFD00200C
:1019E0004149087020213F48FEF7F1FB0A2000F032
:1019F00037FB022241A13B48FEF7F4FB002867D1E8
:101A00003949087020213748FEF7E1FB0A2000F031
:101A10000BFB3BA000F0D4F9802101A8FEF7D7FB17
:101A2000002414E059E040F225512D4800F0D8F888
:101A300068B12B4800F08EF9C5B20A2D01D00D2DEA
:101A400000D106E02046641C01A90D5400BF7F2C84
:101A5000E9D300BF002001A908552FA000F0B0F97C
:101A60000A2000F0E1FA42F20800304B1C4A121D35
:101A7000010600902E48FFF78AF9002004E001A932
:101A8000095C2A4A1154401C8028F8D329A000F090
:101A900097F901228021124800F099F842F20801DA
:101AA0002348FEF789FF4FF4FA7000F0BDFA00BF3B
:101AB0004FF020511E48FEF79FFF0028F8D04FF04E
:101AC00020511B48FEF7A6FE1EA000F079F900BFCA
:101AD00040F22551024800F05FF821B030BD00000F
:101AE00000100140D42D0020B00D00203100000076
:101AF0003200000033000000340000003500000018
:101B0000C7EBCAE4C8EBD2BBB8F6D7D6B7FBB4AEC6
:101B1000A3BA0D0A00000000BDD3CAD5B5BDD7D603
:101B2000B7FBB4AEA3BA25730D0A0000CC0D00209C
:101B3000B8640240444D41BFAACABCB4ABCAE40D6C
:101B40000A000000444D41B4ABCAE4CDEAB3C90D6C
:101B50000A00000010B540F225510E4800F040F890
:101B600088B10C4800F0F6F8C4B2012C02D0022C67
:101B700008D103E00120FFF7ADFE03E00120FFF7ED
:101B800089FE00BF00BF40F22551024800F004F872
:101B900010BD00000044004010B50022002340F6B4
:101BA0006A14A14200D100BF0A1201249440A3B2DA
:101BB000DC43048010BD21B1828942F4005282814D
:101BC00004E082894DF6FF731A40828170471AB192
:101BD000838A0B43838202E0838A8B43838270472C
:101BE00070B50246002400230025002040F66A1646
:101BF000B14200D100BFC1F3421501F01F0301261D
:101C000006FA03F3012D02D19689334006E0022D36
:101C100002D1168A334001E0968A33400C12012625
:101C200006FA04F41688344013B10CB1012000E028
:101C3000002070BDF0B503460024002600250020DA
:101C400040F66A17B94200D100BF1846C1F34214EA
:101C500001F01F06012707FA06F5012C01D10C300F
:101C600004E0022C01D1103000E014301AB10768F2
:101C70002F43076002E00768AF430760F0BD000034
:101C80002DE9FF4705460E460024A14600BFA046A9
:101C9000B08900B100BF2C8A24F44054F08804437A
:101CA0002C82AC8941F20C608443B08831890843AE
:101CB000718908430443AC81AC8A24F44074B08930
:101CC0000443AC826846FFF7AFF92048854202D052
:101CD0001F48854202D1DDF80C9001E0DDF8089044
:101CE000A88900F4004040B109EBC90000EB0910DD
:101CF00031684900B0FBF1F707E009EBC90000EBE0
:101D0000091031688900B0FBF1F76420B7FBF0F0EF
:101D100004012009642101FB1078A88900F4004027
:101D200040B1322000EBC800B0FBF1F000F007003A
:101D3000044308E0322000EB08106421B0FBF1F00E
:101D400000F00F0004432C81BDE8FF870010014024
:101D50000014014001468888C0F30800704770B540
:101D60000446002500F04AFA782000F015FA00F049
:101D7000D1F9284600F010FA00F0CCF9204600F026
:101D80000BFA00F0C7F900F053FA70BD70B50546C4
:101D9000002444F0400400F031FA782000F0FCF90F
:101DA00000F0B8F9204600F0F7F900F0B3F9284642
:101DB00000F0F2F900F0AEF900F03AFA70BD000060
:101DC0000FB4054B10B503A9044A029800F02CF893
:101DD00010BC5DF814FB0000F9200008C80D0020BD
:101DE0000FB4084B10B504A902AA039800F01CF820
:101DF000044602A9002000F0F3F8204610BC5DF86C
:101E000014FB0000E11F000802E008C8121F08C10F
:101E1000002AFAD170477047002001E001C1121F6B
:101E2000002AFBD1704700002DE9FF4F8BB09A4686
:101E30000F460546002606E025280BD052460D9990
:101E400090476D1C761C28780028F5D10FB03046DD
:101E5000BDE8F08F0024A0460122604900E0044361
:101E600015F8013F203B02FA03F00842F7D1287829
:101E70002E2817D115F8010F44F004042A280ED09B
:101E80006FF02F022878A0F1300109290AD808EB59
:101E9000880102EB410100EB01086D1CF2E757F8E5
:101EA000048B6D1C287869283ED006DC0028CDD034
:101EB00063280BD0642804D136E0732810D075282D
:101EC0004BD052460D999047761C85E017F8040BCD
:101ED0008DF8000000208DF80100E946012003E0A4
:101EE00057F8049B4FF0FF3061074FF0000401D416
:101EF0000AE0641C44450DDA8442FADB19F8041048
:101F00000029F6D106E0641C8442FCDB19F80410B9
:101F10000029F8D1264404E019F8010B52460D9926
:101F20009047641EF8D257E001CF4FF00A0B00280B
:101F300002DA40422D2102E0210504D52B218DF843
:101F40002410012103E0E10705D02021F7E70DF17E
:101F5000200908910CE00021F9E701CF4FF00A0BAE
:101F6000F9E75946FEF74DF901F1300209F8012D64
:101F70000028F6D1ADEB090000F1200B600701D479
:101F80004FF00108D84502DDA8EB0B0000E000206F
:101F90008046002406E009A85246005D0D9990474E
:101FA000641C761C08988442F5DB04E0302052461D
:101FB0000D999047761CB8F10001A8F10108F5DCF5
:101FC00005E019F8010B52460D999047761CBBF1BC
:101FD0000001ABF1010BF4DC6D1C34E709280100B2
:101FE0000A68531C0B6010707047000010B504465F
:101FF0006FF00400FFF75CF9E11704EB5171C1F3D6
:10200000C701074A11701046007800EB4001C1EB90
:10201000C0104FF6FF7101EAC0000249088010BDF0
:10202000C40D0020C60D002070B504464FF40770A3
:1020300094FBF0F0C6B24FF4077094FBF0F100FB94
:10204000114085B205E04FF4077000F02FF8701EC4
:10205000C6B2002EF7D115B1284600F027F870BDA2
:102060000146114A12784A434FF0E0235A61002298
:102070009A611A46126942F001021A6100BF4FF0DC
:10208000E022106900F001021AB100F48032002A47
:10209000F5D04FF0E022126922F001024FF0E02368
:1020A0001A6100229A617047C40D00200146114A4E
:1020B00012884A434FF0E0235A6100229A611A467F
:1020C000126942F001021A6100BF4FF0E02210696C
:1020D00000F001021AB100F48032002AF5D04FF06E
:1020E000E022126922F001024FF0E0231A6100227F
:1020F0009A617047C60D002000BF054A128802F0A1
:102100004002002AF9D0C2B2014B9A807047000009
:102110000010014010B540211148FEF799FD012043
:10212000FFF79EFF80210E48FEF794FD0120FFF788
:1021300097FF40210A48FEF78DFD0120FFF790FF31
:1021400080210748FEF77BFD40B940210448FEF797
:102150007FFD0120FFF784FF002010BD0120FCE778
:10216000000402401CB501210220FEF70DFFC02033
:10217000009001208DF804008DF8060000208DF8F5
:10218000070003208DF8050069460248FEF7ECFCC5
:102190001CBD00000004024070B50546002400BFCD
:1021A0001FE040211448FEF753FD0120FFF758FFC0
:1021B000C4F1070045FA00F000F0010020B18021D1
:1021C0000D48FEF747FD03E080210B48FEF740FD78
:1021D00040210948FEF73EFD0420FFF741FF601C47
:1021E000C4B2082CDDDB40210348FEF731FD01209D
:1021F000FFF736FF70BD00000004024010B540211B
:102200000A48FEF727FD80210848FEF723FD02203B
:10221000FFF726FF80210548FEF71AFD0220FFF791
:102220001FFF40210148FEF713FD10BD00040240CE
:1022300010B540210C48FEF70BFD80210A48FEF73F
:1022400007FD0220FFF70CFF40210748FEF702FDC3
:102250000220FFF705FF80210348FEF7FBFC022068
:10226000FFF7FEFE10BD00000004024070B5C82656
:102270000024012511E00A20FFF7D6FE15B1601CED
:1022800084B201E0601E84B2642C00DD002504B934
:10229000012521460348FFF7B6FA3000A6F10106F2
:1022A000E9D170BD0000014096B0A820FFF79EFE66
:1022B0004FF4A060FEF7DEFDFEF7A4F9FEF76AF921
:1022C000FEF788F900F08EF9FFF74CFFFEF706FDE8
:1022D000FFF742F8FDF7EEFFFFF792F8FEF7C0FCBC
:1022E000564B0FCBCDE90C23CDE90A01012154480F
:1022F000FFF70FF90320FFF7CDFA01249CE05148C6
:10230000006800286AD10CB1FEF7D5FDFEF79AF9F6
:1023100001214B48FFF7FDF84B494C48FEF7E0F927
:102320004A4802784AA14B48FFF75AFD46480278CE
:1023300047A14948FFF754FD4448027847A112A835
:10234000FFF74EFD4048027847A10EA8FFF748FD71
:1023500012AA00210846FEF797FD0EAA02210020CE
:10236000FEF792FDFDF7F6FF0646FEF7F8F848B9CE
:10237000324640A106A8FFF733FD06AA042100203B
:10238000FEF782FDFDF7FEFF0546FEF7F5F848B9BA
:102390002A463BA102A8FFF723FD02AA062100203E
:1023A000FEF772FD28480078282801DBFFF75EFF62
:1023B000002C11D02548017834A0FFF701FD2248F8
:1023C00001783AA0FFF7FCFC314640A0FFF7F8FC8B
:1023D000294645A0FFF7F4FC002400BF1948006817
:1023E000012829D1002C14D10020FEF764FD45A05E
:1023F000FFF7E6FC48A0FFF7E3FC51A0FFF7E0FC85
:1024000059A0FFF7DDFC62A0FFF7DAFC6AA0FFF736
:10241000D7FC01246420FFF707FE00210848FFF7DE
:1024200078F86420FFF700FE6D4808238022002121
:1024300000900846FEF76CFE61E70000882C00085B
:1024400000000140AC0D0020C20D0020C10D002095
:1024500025640000150000201700002054656D70F1
:102460003A2025642043000048756D693A202564B0
:10247000202525006C696768743A202564000000F7
:10248000766F6C746167653A202564007C2020209B
:10249000202054656D703A202564204320202020A0
:1024A00020202020207C0D0A000000007C2020201D
:1024B000202048756D693A2025642025252020209C
:1024C0002020202020207C0D0A0000007C202020DD
:1024D00020206C696768743A202564202020202021
:1024E0002020207C0D0A00007C2020202020766FF8
:1024F0006C746167653A2025642020202020207CB0
:102500000D0A0000BFC9CAE4C8EBD2D4CFC2D6B806
:10251000C1EE0D0A000000007C2020202020202099
:10252000312E5475726E4F6E4C6564284C454431A3
:102530002920202020202020207C0D0A00000000DF
:102540007C20202020202020322E5475726E4F6671
:10255000664C6564284C45443129202020202020E9
:10256000207C0D0A000000007C202020202020205C
:10257000332E426565705F50776D2829202020201A
:102580002020202020202020207C0D0A0000000098
:102590007C20202020202020342E5475726E4F661F
:1025A000665F426565702829202020202020202099
:1025B000207C0D0A000000007C202020202020200C
:1025C000352E444D41282920202020202020202065
:1025D0002020202020202020207C0D0A0000000048
:1025E0001900002000B587B001211020FEF7FCFC87
:1025F00001210846FEF7C8FC4FF4C0600590022098
:102600008DF8180000208DF81A0001208DF81B00AD
:1026100000208DF8190005A91D48FEF7A5FA07222C
:1026200009211B48FEF7E8FA07220A211848FEF79D
:10263000E3FA4FF4E13001900020ADF810000C20D7
:10264000ADF80E000020ADF80C00ADF80A00ADF8B2
:10265000080001A90F48FFF713FB01208DF80300C4
:1026600025208DF8000000208DF801008DF8020073
:102670006846FEF7C3FB01210648FFF79CFA0122DA
:1026800040F225510348FFF7D5FA07B000BD00001E
:1026900000000240001001400000000000000000A7
:1026A0000000000000000000000000F80000000032
:1026B000000000333000000000100C06100C060073
:1026C000000000000000000040C07840C0784000DA
:1026D000043F04043F040400007088FC083000003C
:1026E000001820FF211E0000F008F000E018000094
:1026F00000211C031E211E0000F00888700000004D
:102700001E2123241927211010160E00000000009E
:102710000000000000000000000000E018040200BB
:10272000000000071820400000020418E00000002C
:102730000040201807000000404080F0804040002A
:102740000202010F01020200000000F00000000080
:102750000101011F01010100000000000000000054
:1027600080B07000000000000000000000000000C9
:102770000001010101010101000000000000000052
:1027800000303000000000000000000080601804ED
:10279000006018060100000000E010080810E000CA
:1027A000000F102020100F00001010F80000000093
:1027B0000020203F202000000070080808887000DA
:1027C000003028242221300000300888884830005A
:1027D0000018202020110E000000C02010F800007A
:1027E00000070424243F240000F808888808080013
:1027F0000019212020110E0000E010888818000028
:10280000000F112020110E0000380808C8380800F9
:102810000000003F00000000007088080888700079
:10282000001C222121221C0000E010080810E000FA
:102830000000312222110F00000000C0C000000083
:1028400000000030300000000000008000000000A8
:1028500000008060000000000000804020100800A0
:102860000001020408102000404040404040400069
:102870000404040404040400000810204080000044
:102880000020100804020100007048080808F00049
:102890000000003036010000C030C828E810E00019
:1028A0000718272423140B000000C038E0000000A4
:1028B000203C23020227382008F88888887000000E
:1028C000203F202020110E00C030080808083800E2
:1028D000071820202010080008F808080810E00059
:1028E000203F202020100F0008F88888E8081000FA
:1028F000203F20202320180008F88888E8081000CE
:10290000203F200003000000C03008080838000005
:1029100007182020221E020008F808000008F80806
:10292000203F210101213F20000808F8080800008D
:102930000020203F2020000000000808F8080800C0
:10294000C08080807F00000008F888C02818080038
:10295000203F20012638200008F808000000000071
:10296000203F20202020300008F8F800F8F8080068
:10297000203F003F003F200008F830C00008F80862
:10298000203F200007183F00E01008080810E00072
:102990000F10202020100F0008F808080808F00089
:1029A000203F210101010000E01008080810E000AC
:1029B0000F18242438504F0008F888888888700041
:1029C000203F2000030C30200070880808083800E1
:1029D0000038202121221C00180808F808081800D7
:1029E0000000203F2000000008F808000008F80858
:1029F000001F202020201F000878880000C8380809
:102A0000000007380E010000F80800F80008F80080
:102A1000033C0700073C030008186880806818081A
:102A200020302C03032C30200838C800C838080098
:102A30000000203F2000000010080808C8380800E7
:102A40002038262120201800000000FE020202008B
:102A50000000007F40404000000C30C0000000003B
:102A6000000000010638C00000020202FE00000063
:102A7000004040407F000000000004020202040009
:102A80000000000000000000000000000000000046
:102A9000808080808080808000020204000000002E
:102AA0000000000000000000000080808080000026
:102AB0000019242222223F2008F800808000000014
:102AC000003F112020110E000000008080800000D7
:102AD000000E112020201100000000808088F800E6
:102AE000000E112020103F20000080808080000018
:102AF000001F222222221300008080F0888888187C
:102B00000020203F20200000000080808080800086
:102B1000006B94949493600008F80080808000001B
:102B2000203F210000203F200080989800000000F6
:102B30000020203F20200000000000809898000026
:102B400000C08080807F000008F800008080800046
:102B5000203F24022D302000000808F8000000006B
:102B60000020203F20200000808080808080800026
:102B7000203F20003F20003F8080008080800000B8
:102B8000203F210000203F20000080808080000046
:102B9000001F202020201F00808000808000000077
:102BA00080FFA12020110E000000008080808000A6
:102BB000000E112020A0FF80808080008080800097
:102BC00020203F21200001000000808080808000C4
:102BD0000033242424241900008080E08080000039
:102BE0000000001F20200000808000000080800086
:102BF000001F202020103F208080800000808080E7
:102C000000010E3008060100808000800080808076
:102C10000F300C030C300F0000808000808080009B
:102C20000020312E0E3120008080800000808080C6
:102C300080818E7018060100008080808080800076
:102C40000021302C2221300000000000807C020294
:102C500000000000003F404000000000FF000000B6
:102C600000000000FF0000000002027C8000000065
:102C70000040403F00000000000601010202040481
:102C800000000000000000006572726F723A6E6F03
:102C90002064617461000000B82C0008000000206E
:102CA000CC0D0000540200084C300008CC0D002070
:102CB0002C240000181E0008120001200501020348
:102CC00004040006200607080900019009E0F0F05E
:102CD000F0E0C080801312800112C001D2E0012117
:102CE00014112AE28043000A3380C0E0F0F8F8F8BB
:102CF0007000012018010307878FDFFFFFFEFCF83B
:102D0000FC7C7E3E3F1F1F1F0F0F0F0701B2030108
:102D10003113111B112110083F3E7E7EFCF8F8BBD9
:102D2000000B34F8FCFE7F3F1F0F0703017E12C02B
:102D3000421004FF7F3F70A00483818001F12AB11B
:102D40001E353011BA000A34070F3F7FFFFEF8F03E
:102D5000C07E13F8FF01320FBB21DAA101D2077F39
:102D6000011820230107460232F8FE1404031F7FD6
:102D700079000538F0C08000011004C0F0FC7F032A
:102D8000351F033F340701030F1F3F7FCE29620227
:102D900023808B29A02AE07527FC7EFE0536FDB92D
:102DA000871A0162695E10043E7E7C01C2F801222E
:102DB000FC148B7E3EA2034103017801750145415D
:102DC0008101357CE1163DF403CD1A0431369519A5
:102DD000413B4117F2F0170513CD1EE0B40352FF3B
:102DE00001C0097F7F7F3F3F7F7FFF012116827FE8
:102DF000161D1A041004E080803781211F3F3F28F0
:102E0000041105C13A011117213BCD74038130A78C
:102E1000CF01FE2607FBB60FD500041101CFFF013D
:102E2000DBEF01382DBB03E90DA13BDDC903A21F78
:102E3000D90B14F0E0F11A80DE952790061F0303EA
:102E40001F3FD52DB3050517DA213B75140C041669
:102E50003F0F037503011387D179BD5E03352585C7
:102E600073B3FEFC87317975DA11B40D1F9605F145
:102E700087011679FD3206E1BFD1B30D2C0F06A2F2
:102E8000014F0D295004C18751790D3982040E3448
:102E900007C6061D42050E430F03050D5B710413A3
:102EA000FC440122FF051EFC4D071C1440380000A5
:102EB0003C4040434C404070040830004042CC0E3F
:102EC00007100A88888808FF0809CA08222C0E3FC4
:102ED00090681F10209F4027182641F0B803DEFE9F
:102EE00090070E233328062DAA074C04E0F0FC10AF
:102EF000031004FEFEE7015EF3F70412FC014DD55A
:102F0000056101423C01231C1E011F0E0E6C081CB2
:102F1000042F2F2F8D07330E0E0D9101621F0142DA
:102F20003E011E7E310619872D32050D19C1063C62
:102F300005E03E7EFED403523F3EAE3FBE044DF957
:102F4000080F310F0F56062D2A042004FEFEFED175
:102F50003D16093DBB057DD4032F01033B04112021
:102F6000DEBCFB0921255BF8F8F7DD99033D6E0413
:102F70000D1CBF035EC0250A1D160A0D1658032D31
:102F8000AE092DCB058DCD058C047F7F0F7F08DD2D
:102F90002005AEC04C030D143D0421330619F06327
:102FA000EDAE051DA4040D2E9C094E38E7054EE03C
:102FB000AD060F20FC7FCC044EC0A9050316F0F02F
:102FC000532DB90A961F0625120D2F1F04420FD14B
:102FD00011661D370A0C051CFEFF4741E1073EB88C
:102FE000E4060C053F8F8F8F032C083D100CCD0994
:102FF0000C9D070C561FC645701D0503411F81011E
:103000007D480C87F0F8998D4008DEF0620CAFC067
:10301000C07D0C4DAC034D56083DAC033B7E7E504D
:103020002D03083DEF07810141123C047F7F7E0A9A
:103030000351674F0301390C0136016D790C0118FA
:0C304000220D2BEC0C414F0522930000E8
:040000050800018965
:00000001FF
